S01300005072616B74696B756D20342E7372656305
S113000046C2000065C2000063C2000061C2000075
S11300105FC200005DC200005BC2000059C2000064
S113002057C2000055C2000053C2000051C2000074
S11300304FC200004DC200004BC2000049C2000084
S113004047C2000045C2000043C2000041C2000094
S11300503FC200003DC200003BC2000039C20000A4
S113006037C2000035C2000033C2000031C20000B4
S11300702FC200002DC200002BC2000029C20000C4
S113008027C2000025C2000023C2000021C20000D4
S11300901FC200001DC200001BC20000DFC500001B
S11300A00FC600003FC600006FC6000011C200006A
S11300B00FC200000DC200000BC2000009C2000004
S11300C007C2000005C2000003C2000001C2000014
S11300D0FFC10000FDC10000FBC10000F9C1000028
S11300E0F7C10000F5C10000F3C10000F1C1000038
S11300F0EFC10000EDC10000EBC10000E9C1000048
S1130100E7C10000E5C10000E3C10000E1C1000057
S1130110DFC10000DDC10000DBC10000D7C4000066
S113012007C5000037C5000067C50000D1C1000045
S1130130CFC10000CDC10000CBC10000C9C1000087
S1130140C7C10000C5C10000C3C10000C1C1000097
S1130150BFC10000BDC10000BBC10000B9C10000A7
S1130160B7C10000B5C10000B3C10000B1C10000B7
S1130170AFC10000ADC10000ABC10000A9C10000C7
S1130180A7C10000A5C10000A3C10000A1C10000D7
S11301909FC100009DC100009BC1000099C10000E7
S11301A097C1000095C1000093C1000091C10000F7
S11301B08FC100008DC100008BC1000089C1000007
S11301C087C1000085C1000083C1000081C1000017
S11301D07FC100007DC100007BC1000079C1000027
S11301E077C1000075C1000073C1000071C1000037
S11301F06FC100006DC100006BC100000000000071
S1130200000000202020202000205050500000003A
S1130210005050F850F850502078A07028F020C0BA
S1130220C810204098186090A040A89068602040B2
S1130230000000001020404040201040201010100A
S11302402040005020F8205000002020F8202000FA
S113025000000000602040000000F80000000000E2
S1130260000000606000081020408000708898A89A
S1130270C8887020602020202070708808102040DA
S1130280F8F810201008887010305090F81010F80A
S113029080F008088870304080F0888870F8081072
S11302A020404040708888708888707088887808FA
S11302B010600060600060600000606000602040CA
S11302C0081020402010080000F800F800008040CA
S11302D02010204080708808102000207088086852
S11302E0A8A87070888888F88888F08888F088883A
S11302F0F070888080808870E09088888890E0F82A
S11303008080F08080F8F88080E080808070888031
S113031080988870888888F88888887020202020B1
S11303202070381010101090608890A0C0A09088A1
S1130330808080808080F888D8A888888888888889
S1130340C8A898888870888888888870F08888F019
S113035080808070888888A89068F08888F0A09051
S113036088788080700808F0F820202020202088D9
S113037088888888887088888888885020888888B1
S1130380A8A8D88888885020508888888850202039
S11303902020F80810204080F83820202020203821
S11303A000804020100800E02020202020E0205081
S11303B08800000000000000000000F84020100049
S11303C0000000000070087888788080B0C88888B1
S11303D0F000007080808870080868988888780029
S11303E0007088F88070304840E040404000007859
S11303F0887808308080B0C88888882000602020F1
S113040020701000301010906040404850605048F8
S1130410602020202020700000D0A8A88888000038
S1130420B0C8888888000070888888700000F088C8
S1130430F08080000068987808080000B0C88080C8
S113044080000070807008F04040E0404048300078
S11304500088888898680000888888502000008870
S113046088A8A85000008850205088000088887808
S113047008700000F8102040F810202040202010C0
S11304802020202020202040202010202040112443
S11304901FBECFEFCDBFDFE5DEBF00E00CBF10E233
S11304A0A0E0B0E2EAECFDE100E00BBF02C007907F
S11304B00D92A838B107D9F722E2A8E8B0E201C04A
S11304C01D92A23FB207E1F70E94060E0C94E30EC0
S11304D097CD04C0615071098109910961157105B5
S11304E081059105B9F70895BF92CF92DF92EF92FB
S11304F0FF920F931F93CF93DF931F92CDB7DEB775
S113050000E016E06894FF24F3F8F801F68264E052
S113051070E080E090E0DDDFF801F58264E070E0F7
S113052080E090E0D6DF0F2EFBE2BF2EF02DB982E3
S113053080EA99E00E942B0BC12CD12C760100E4B7
S113054012E42FE030E043E0BE016F5F7F4F80EAAA
S113055099E00E945A0B00E616E0FF24F394F80198
S1130560F682B982BE016F5F7F4F80EA99E00E94F4
S1130570740BF801F682E0EAF9E0818185FFFDCF92
S113058080EA8093A009E0EAF9E0818186FFFDCF4B
S1130590E0EAF9E080E481838081BE016F5F7F4FF0
S11305A080EA99E00E948A0B8BE28983BE016F5F27
S11305B07F4F80EA99E00E94740B81E08093660685
S11305C0E0EAF9E0818185FFFDCF86EA8093A00906
S11305D0E0EAF9E0818186FFFDCFE0EAF9E080E41A
S11305E081838081BE016F5F7F4F80EA99E00E9422
S11305F08A0B8BE28983BE016F5F7F4F80EA99E0AB
S11306000E94740B81E080936606E0EAF9E0818140
S113061085FFFDCF88EC8093A009E0EAF9E08181B1
S113062086FFFDCFE0EAF9E080E481838081BE01AA
S11306306F5F7F4F80EA99E00E948A0B8BE2898387
S1130640BE016F5F7F4F80EA99E00E94740B81E0E6
S113065080936606E0EAF9E0818185FFFDCF82EAB6
S11306608093A009E0EAF9E0818186FFFDCFE0EA0A
S1130670F9E080E481838081BE016F5F7F4F80EA6F
S113068099E00E948A0B8BE28983BE016F5F7F4FE2
S113069080EA99E00E94740B81E080936606E0EAA8
S11306A0F9E0818185FFFDCF8FE28093A009E0EA24
S11306B0F9E0818186FFFDCFE0EAF9E080E48183FF
S11306C08081BE016F5F7F4F80EA99E00E948A0BB0
S11306D08BE28983BE016F5F7F4F80EA99E00E94BD
S11306E0740B81E080936606E0EAF9E0818185FF7E
S11306F0FDCF88EF8093A009E0EAF9E0818186FFCD
S1130700FDCFE0EAF9E080E481838081BE016F5F80
S11307107F4F80EA99E0FED78BE28983BE016F5F49
S11307207F4F80EA99E0E0D781E080936606E0EAB3
S1130730F9E0818185FFFDCF1092A009E0EAF9E09C
S1130740818186FFFDCFE0EAF9E080E48183808146
S1130750BE016F5F7F4F80EA99E0DCD78BE289832B
S1130760BE016F5F7F4F80EA99E0BED781E080933E
S11307706606E0EAF9E0818185FFFDCF81E280939E
S1130780A009E0EAF9E0818186FFFDCFE0EAF9E023
S113079080E481838081BE016F5F7F4F80EA99E0AE
S11307A0B9D78BE28983BE016F5F7F4F80EA99E0FE
S11307B09BD781E080936606E0EAF9E0818185FFBA
S11307C0FDCF81E88093A009E0EAF9E0818186FF0A
S11307D0FDCFE0EAF9E080E481838081BE016F5FB0
S11307E07F4F80EA99E096D78BE28983BE016F5FE1
S11307F07F4F80EA99E078D781E080936606E0EA4B
S1130800F9E0818185FFFDCF81E28093A009E0EAD0
S1130810F9E0818186FFFDCFE0EAF9E080E481839D
S11308208081BE016F5F7F4F80EA99E073D78BE2CE
S11308308983BE016F5F7F4F80EA99E055D781E0DD
S113084080936606E0EAF9E0818185FFFDCF8FEAB7
S11308508093A009E0EAF9E0818186FFFDCFE0EA18
S1130860F9E080E481838081BE016F5F7F4F80EA7D
S113087099E050D70F90DF91CF911F910F91FF9086
S1130880EF90DF90CF90BF900895FF920F931F9346
S1130890CF93DF931F92CDB7DEB7082FF62E142F18
S11308A054D70F70006B8BE28983BE016F5F7F4F5B
S11308B080EA99E019D781E080936606E0EAF9E0DE
S11308C0918195FFFDCF0093A009E0EAF9E08181D1
S11308D086FFFDCFE0EAF9E080E481838081BE01F8
S11308E06F5F7F4F80EA99E015D70F2D0F77029540
S11308F00F7000618BE28983BE016F5F7F4F80EAD6
S113090099E0F2D681E080936606E0EAF9E081811D
S113091085FFFDCF0093A009E0EAF9E0818186FF1D
S1130920FDCFE0EAF9E080E481838081BE016F5F5E
S11309307F4F80EA99E0EED60F2D0F708BE289830A
S1130940BE016F5F7F4F80EA99E0CED681E080934D
S11309506606E0EAF9E0818185FFFDCF0093A009F6
S1130960E0EAF9E0818186FFFDCFE0EAF9E080E486
S113097081838081BE016F5F7F4F80EA99E0CAD690
S11309808BE28983BE016F5F7F4F80EA99E0ACD62A
S113099081E080936506E0EAF9E0818185FFFDCF7F
S11309A01093A009E0EAF9E0818186FFFDCFE0EA37
S11309B0F9E080E48183808181E080936606BE0152
S11309C06F5F7F4F80EA99E0A5D60F90DF91CF91BA
S11309D01F910F91FF9008950F931F93CF93DF936F
S11309E01F92CDB7DEB788E890E2AAD67DDD8BE210
S11309F08983BE016F5F7F4F80EA99E075D681E0FD
S1130A0080936606E0EAF9E0818185FFFDCF80E40A
S1130A108093A009E0EAF9E0818186FFFDCFE0EA56
S1130A20F9E080E481838081BE016F5F7F4F80EABB
S1130A3099E070D600E00AC040E0612F802F25DFE6
S1130A401F5F1038C9F70F5F043011F010E0F4CFC6
S1130A500F90DF91CF911F910F910895FF920F9303
S1130A601F93CF93DF9388234CF1603238F5D42F52
S1130A70C82FF62EF694F694F69470E088E0F89E6B
S1130A8060197109112481E090E08C0102C0000F0B
S1130A90111F6A95E2F76C2F8F2D65D6D13021F0A6
S1130AA028F0D23031F006C0802B04C0009580239A
S1130AB001C08027482F6C2F8F2DE7DEDF91CF9167
S1130AC01F910F91FF9008954EC608951F920F92A3
S1130AD00FB60F9211240BB60F922F933F934F939F
S1130AE05F936F937F938F939F93AF93BF93EF9392
S1130AF0FF934091240250912502E091F022F0915D
S1130B00F12261E080E092E01995FF91EF91BF91AD
S1130B10AF919F918F917F916F915F914F913F9191
S1130B202F910F900BBE0F900FBE0F901F90189532
S1130B301F920F920FB60F9211240BB60F922F93A0
S1130B403F934F935F936F937F938F939F93AF9351
S1130B50BF93EF93FF9340912C0250912D02E091AB
S1130B60F022F091F12262E080E092E01995FF9189
S1130B70EF91BF91AF919F918F917F916F915F9111
S1130B804F913F912F910F900BBE0F900FBE0F907E
S1130B901F9018951F920F920FB60F9211240BB647
S1130BA00F922F933F934F935F936F937F938F9302
S1130BB09F93AF93BF93EF93FF934091340250916F
S1130BC03502E091F022F091F12264E080E092E0BD
S1130BD01995FF91EF91BF91AF919F918F917F9163
S1130BE06F915F914F913F912F910F900BBE0F909A
S1130BF00FBE0F901F9018951F920F920FB60F9271
S1130C0011240BB60F922F933F934F935F936F93DF
S1130C107F938F939F93AF93BF93EF93FF934091F1
S1130C203C0250913D02E091F022F091F12268E003
S1130C3080E092E01995FF91EF91BF91AF919F9160
S1130C408F917F916F915F914F913F912F910F9071
S1130C500BBE0F900FBE0F901F9018951F920F920E
S1130C600FB60F9211240BB60F922F933F934F930D
S1130C705F936F937F938F939F93AF93BF93EF9300
S1130C80FF934091640250916502E091EE22F0914D
S1130C90EF2261E080E492E01995FF91EF91BF911A
S1130CA0AF919F918F917F916F915F914F913F9100
S1130CB02F910F900BBE0F900FBE0F901F901895A1
S1130CC01F920F920FB60F9211240BB60F922F930F
S1130CD03F934F935F936F937F938F939F93AF93C0
S1130CE0BF93EF93FF9340916C0250916D02E0919A
S1130CF0EE22F091EF2262E080E492E01995FF91F8
S1130D00EF91BF91AF919F918F917F916F915F917F
S1130D104F913F912F910F900BBE0F900FBE0F90EC
S1130D201F9018951F920F920FB60F9211240BB6B5
S1130D300F922F933F934F935F936F937F938F9370
S1130D409F93AF93BF93EF93FF934091740250919D
S1130D507502E091EE22F091EF2264E080E492E0EB
S1130D601995FF91EF91BF91AF919F918F917F91D1
S1130D706F915F914F913F912F910F900BBE0F9008
S1130D800FBE0F901F9018951F920F920FB60F92DF
S1130D9011240BB60F922F933F934F935F936F934E
S1130DA07F938F939F93AF93BF93EF93FF93409160
S1130DB07C0250917D02E091EE22F091EF2268E0F6
S1130DC080E492E01995FF91EF91BF91AF919F91CB
S1130DD08F917F916F915F914F913F912F910F90E0
S1130DE00BBE0F900FBE0F901F9018954F925F92FD
S1130DF06F927F928F929F92AF92BF92EF92FF92E7
S1130E000F931F93CF937C014A015B0128013901A1
S1130E10FC01848182FF16C0D901C801689412F8CC
S1130E20B695A795979587951694D1F7B901A8011A
S1130E30032E36E176956795579547953A95D1F700
S1130E40302D15C0D901C801689413F8B695A7953B
S1130E50979587951694D1F7B901A801032E37E128
S1130E6076956795579547953A95D1F7302D88151E
S1130E709905AA05BB0508F4A2C084169506A60622
S1130E80B70608F49EC0F701848182FD04C0880C73
S1130E90991CAA1CBB1CC301B201A50194014CD727
S1130EA02F3F31054105510508F48DC08FEF90E0C7
S1130EB0A0E0B0E0C9EF05C0281739074A075B076F
S1130EC058F0880F991FAA1FBB1FCD3F0CF48160F7
S1130ED0CF5FC73089F74DC0CC230CF04AC0D50191
S1130EE0C401880F991FAA1FBB1F880F991FAA1F2F
S1130EF0BB1F880F991FAA1FBB1F481A590A6A0AE9
S1130F007B0ACE3FECF48DEF9FEF8C1B9109C7FD5C
S1130F10939504C0440C551C661C771C8A95D2F723
S1130F20D501C401B695A79597958795BC01CD01C8
S1130F30640D751D861D971DA5019401FDD635C050
S1130F4083E08C0FA501940104C0220F331F441FBA
S1130F50551F8A95D2F7DA01C901B695A7959795D9
S1130F608795BC01CD01640D751D861D971DE4D6C2
S1130F701CC083E08C0FA501940104C0220F331F11
S1130F80441F551F8A95D2F7DA01C901B695A79572
S1130F9097958795BC01CD01640D751D861D971D20
S1130FA0CBD62150310941095109832F8F70C29545
S1130FB0C07FC82BF701C783268381E018C080E077
S1130FC016C080E014C0D501C401880F991FAA1F60
S1130FD0BB1F880F991FAA1FBB1F880F991FAA1F29
S1130FE0BB1F481A590A6A0A7B0AC9EF8CCFCF91F2
S1130FF01F910F91FF90EF90BF90AF909F908F90B3
S11310007F906F905F904F9008950F931F93CF93AD
S1131010DF93EC018B01009709F4E6C0803C910555
S113102021F460E180E039D4DFC0C03881E0D80722
S113103021F462E080E031D4D7C0C115E1E0DE07DD
S113104021F461E080E029D4CFC0C038F3E0DF07A9
S113105021F461E081E021D4C7C0C03983E0D8071E
S113106021F461E082E019D4BFC0C115E2E0DE07DB
S113107021F462E081E011D4B7C0C034F2E0DF07AC
S113108021F462E082E009D4AFC0C03283E0D80723
S113109021F464E082E001D4A7C0C115E8E0DE07D2
S11310A021F461E083E0F9D39FC0C115F9E0DF07C3
S11310B021F461E084E0F1D397C0C1158AE0D80738
S11310C021F461E085E0E9D38FC0C115EBE0DE07D0
S11310D021F461E086E0E1D387C0C034F8E0DF07A3
S11310E021F462E083E0D9D37FC0C03489E0D8071B
S11310F021F462E084E0D1D377C0C034EAE0DE07B3
S113110021F462E085E0C9D36FC0C039F8E0DF079D
S113111021F464E083E0C1D367C0C03989E0D80713
S113112021F464E084E0B9D35FC0C039EAE0DE07AB
S113113021F464E085E0B1D357C0C039FBE0DF0798
S113114021F464E086E0A9D34FC0C03C88E0D8070E
S113115021F468E083E0A1D347C0C03CE9E0DE07A6
S113116021F468E084E099D33FC0C03AF8E0DF0797
S113117021F460E183E091D337C0C03A89E0D80715
S113118021F460E184E089D32FC0C03AEAE0DE07AD
S113119021F460E185E081D327C0C03AFBE0DF079A
S11311A021F460E186E079D31FC0C03B88E0D80712
S11311B021F460E283E071D317C0C03BE9E0DE07AD
S11311C021F460E284E069D30FC0C038F4E0DF07A3
S11311D021F460E483E061D307C0C03A84E0D80717
S11311E019F460E485E059D38D818F738D83F80100
S11311F095818481892B9681911198E0892B8D8327
S1131200F801408151816281738100E814E82EE184
S113121030E0CE01EBDD9C8198609C839C819061E1
S11312209C83DF91CF911F910F910895CF92DF920C
S1131230EF92FF920F931F93CF93DF93EC01D901A9
S1131240C801B695A79597958795481759076A07D2
S11312507B0770F46A017B01CC0CDD1CEE1CFF1CC7
S1131260C901B801A701960167D52150310902C00F
S113127020E030E0832F8F708F832E83DF91CF9116
S11312801F910F91FF90EF90DF90CF900895DF9220
S1131290EF92FF920F931F93CF93DF931F92CDB7DB
S11312A0DEB77C018B01009709F4B2C1803C910543
S11312B021F460E180E0F1D2ABC180E8E81681E07E
S11312C0F80621F462E080E0E8D2A2C1E114E1E092
S11312D0FE0621F461E080E0E0D29AC1F0E8EF1666
S11312E0F3E0FF0621F461E081E0D7D291C130E957
S11312F0E31633E0F30621F461E082E0CED288C144
S1131300E11482E0F80621F462E081E0C6D280C1F3
S1131310E0E4EE16E2E0FE0621F462E082E0BDD2F3
S113132077C1F0E2EF16F3E0FF0621F464E082E017
S1131330B4D26EC1E11438E0F30621F461E083E035
S1131340ACD266C1E11489E0F80621F461E084E0DE
S1131350A4D25EC1E114EAE0FE0621F461E085E076
S11313609CD256C1E114FBE0FF0621F461E086E063
S113137094D24EC130E4E31638E0F30621F462E07F
S113138083E08BD245C180E4E81689E0F80621F4B5
S113139062E084E082D23CC1E0E4EE16EAE0FE06BC
S11313A021F462E085E079D233C1F0E9EF16F8E088
S11313B0FF0621F464E083E070D22AC130E9E31629
S11313C039E0F30621F464E084E067D221C180E9C6
S11313D0E8168AE0F80621F464E085E05ED218C1DC
S11313E0E0E9EE16EBE0FE0621F464E086E055D277
S11313F00FC1F0ECEF16F8E0FF0621F468E083E09B
S11314004CD206C130ECE31639E0F30621F468E06F
S113141084E043D2FDC080EAE81688E0F80661F46F
S113142060E183E03AD2E0EAF8E084818F7E84834D
S1131430F801248122504CC0F0EAEF16F9E0FF06CF
S113144021F460E184E029D2E3C030EAE3163AE013
S1131450F30621F460E185E020D2DAC080EAE816E0
S11314608BE0F80621F460E186E017D2D1C0E0EB0E
S1131470EE16E8E0FE0621F460E283E00ED2C8C076
S1131480F0EBEF16F9E0FF0621F460E284E005D208
S1131490BFC030E8E31634E0F30621F460E483E0EF
S11314A0FCD1B6C080EAE81684E0F80621F460E4D2
S11314B085E0F3D1ADC0F70184818F7E8483FB0185
S11314C024812250C701F0EAEF16F8E0FF0649F440
S11314D080914E0684FDA5C00F2EF1E1DF2EF02D84
S11314E0A4C0803B38E0930791F0803AE9E09E077E
S11314F049F430916E0634FD9BC00F2EF9E1DF2EC6
S1131500F02D16C0803BF9E09F07F1F004C00F2EC8
S1131510F5E1DF2EF02D803A3AE0930749F480910B
S11315208E0684FD8AC00F2EF1E2DF2EF02D15C049
S1131530803A9B4091F48091AE0684FD0AC00F2E40
S1131540F9E2DF2EF02D09C00F2EFDE1DF2EF02D84
S113155004C00F2EFDE2DF2EF02DED2DE695E6956D
S1131560E69530E2E39FF0011124FA5F3D2D3770D8
S113157081E090E0032E02C0880F991F0A94E2F7DD
S11315808183223010F040E001C040E4DF01509636
S1131590A30FB11D9FB79983F89439812C912770BB
S11315A02C939C91942B9C933FBF8583F701858159
S11315B0806C8583F80184818D7F813029F4F70163
S11315C085818260858304C0F70185818D7F858351
S11315D0F8018581882329F0F7018581846085835A
S11315E004C0F70185818B7F8583F8014081518197
S11315F06281738100E814E82EE130E0C70116DE51
S1131600F7018481886084838481806184831AC023
S1131610F70184818F7E8483F80124812250C701DD
S113162060CF0F2EF5E1DF2EF02D80EA98E06ACF2F
S11316300F2EFDE1DF2EF02D7BCF0F2EF5E2DF2EF6
S1131640F02D8BCF0F90DF91CF911F910F91FF90D1
S1131650EF90DF900895803A28E0920721F460E14A
S113166083E01BC10895803B28E0920721F460E2E7
S113167083E013C10895803A29E0920721F460E1E0
S113168084E00BC10895803B29E0920721F460E2D5
S113169084E003C10895803A2AE0920721F460E1CE
S11316A085E0FBC00895803A9B4019F460E186E030
S11316B0F4C008950F931F93CF93DF9300D000D00D
S11316C0CDB7DEB709831A832B833C834D831E82F7
S11316D0BE016F5F7F4FDBDD2696CDBFDEBFDF919E
S11316E0CF911F910F910895FB018081E82FE6951A
S11316F0E695E69540E2E49FF0011124FA5F8770D5
S113170021E030E0A90102C0440F551F8A95E2F799
S113171046830895FB018081E82FE695E695E695DA
S113172040E2E49FF0011124FA5F877021E030E089
S1131730A90102C0440F551F8A95E2F74583089515
S11317408093882290938922089520918822309151
S1131750892290E8899F200D311D1124F901E60F9B
S1131760F11D40830895209188223091892290E8C8
S1131770899F200D311D1124F901E60FF11D80818F
S11317800895FF920F931F93CF93DF93E42FF0E01C
S1131790E80FF11DE138F1051CF0C0E84C2F481B9F
S11317A0442309F44AC0D62FD695D695D69570E031
S11317B098E0D99F601971091124E1E0F0E0DF019C
S11317C002C0AA0FBB1F6A95E2F7FA2E213021F05E
S11317D098F0223019F131C0C42F1FEF180F012FD8
S11317E00C0F602F8D2F70D94F2D482B602F8D2F0C
S11317F04CD8C150A1F721C0C42F1FEF180FFA2EE7
S1131800F094012F0C0F602F8D2F5ED94F2D48239C
S1131810602F8D2F3AD8C150A1F70FC0C42F1FEFEE
S1131820180F012F0C0F602F8D2F4ED94F2D4827E5
S1131830602F8D2F2AD8C150A1F7DF91CF911F912E
S11318400F91FF900895FF920F931F93CF93DF930F
S1131850222369F0F42E182FC22FDFEFD60F6D2F3D
S11318606C0F202F4F2D812F8CDFC150C1F7DF91DA
S1131870CF911F910F91FF9008958FEF8093700087
S1131880809371008093720080937300809374003E
S113189080937500809376000895CF93DF931F9211
S11318A0CDB7DEB79FB79983F8949981E82FF0E01C
S11318B0E059FF4F60958081682360839FBF0F903C
S11318C0DF91CF910895AF92BF92CF92DF92EF92C2
S11318D0FF920F931F93CF93DF93C82FE62EB42E5E
S11318E0690100E0F901248143816B2D8E2DABDF6A
S11318F0F6018081811139C08381282F2695269590
S11319002695877009F02F5FF601A4808C2F90E054
S11319103581831B91092A9D90011124829FA00186
S1131920839F500D929F500D112401811281040F49
S1131930151FF601F380FF20A1F0D0E0C0E08E2D4A
S11319408C0F9C2F977021F4F801D4910F5F1F4FD7
S1131950DD231CF441E06B2D81D8DD0FCF5FFC1239
S1131960EECFB394AA94A110E4CFDF91CF911F914D
S11319700F91FF90EF90DF90CF90BF90AF900895BC
S1131980DF92EF92FF920F931F93CF93DF93D62EA4
S1131990042F7901EC01162F89918A3031F4F70173
S11319A084818F5F080F1D2D09C08D3039F0970198
S11319B0402F612F88DFF7018381180F88818111FF
S11319C0EBCFDF91CF911F910F91FF90EF90DF90BC
S11319D00895CF93DF93FC0120E030E0C62FD0E0E0
S11319E0DE01022E02C0B595A7950A94E2F7A0FD88
S11319F0508B2F5F3F4F31962830310589F740FFD8
S1131A000AC041FF03C0FC01658302C0FC01668378
S1131A10FC01618302C0FC016283DF91CF910895D0
S1131A2043E050E061E080EE97E0D3DF43E050E034
S1131A3062E080EE97E0CDDF43E050E060E180E6D5
S1131A4096E0C7DF41E050E460E280E696E0C1DF63
S1131A5040E05BE160E280E896E0BBDF40E05BE110
S1131A6062E080EA96E0B5DF40E05BE164E080EAB2
S1131A7096E0AFDF43E050E062E080E696E0A9DF65
S1131A8043E050E068E080E696E0A3DF43E050E006
S1131A9068E080EA96E09DDF43E050E061E080E6A4
S1131AA096E097DF43E050E068E080E096E091DF65
S1131AB041E050E060E180E896E08BDF43E050E0F5
S1131AC062E080E696E085DF43E050E068E080E68F
S1131AD096E07FDF40E050E064E080E696E079DF66
S1131AE043E050E060E180EA96E073DF40E050E0DC
S1131AF061E080E096E06DDF40E050E064E080E08B
S1131B0096E067DF40E050E062E080E296E061DF6B
S1131B1043E050E068E080E496E05BDF40E050E0C2
S1131B2064E080E496E055DF43E050E068E080E65E
S1131B3096E04FDF40E050E064E080E696E049DF65
S1131B4043E050E068E080E896E043DF40E050E0A6
S1131B5064E080E896E03DCF089504C061507109C7
S1131B60810991096115710581059105B9F70895F8
S1131B701092A7088CE08093A6081092A30883E033
S1131B808093A50888E18093A4080895E1EAF8E029
S1131B90908195FFFDCF8093A0080895CF93DF93A4
S1131BA0EC018881882351F02196F0DF6EE471E026
S1131BB080E090E0D2DF89918111F7CFDF91CF915E
S1131BC00895E1EAF8E080818823ECF78091A00889
S1131BD008950F931F93CF93DF930AE812E2C0E0B6
S1131BE0D0E0EFDF8A3051F02196F80181938F0124
S1131BF06EE471E080E090E0B0DFF3CFC657DD4DD6
S1131C001882DF91CF911F910F91089509DF35DE7E
S1131C100E94EC0487E08093A200789480E1809392
S1131C20850688E0809345068093410684E080938E
S1131C304606809342069CDF67E070E280EA98E003
S1131C40E4D920E030E240E060E08EE090E298DE0B
S1131C5020E030E248E060E08AE190E291DE6BE06F
S1131C607BE882E090E079DF20E030E248E060E069
S1131C7083E290E285DE6BE07BE882E090E06DDF5A
S1131C8020E030E248E060E08CE290E279DE6BE252
S1131C907CE28AE090E061DF00EE17E0C1E099DFCA
S1131CA020E030E240E060E085E390E269DE20E09D
S1131CB030E248E060E085E490E262DE20E030E279
S1131CC048E060E28AE892E25BDE6BE171E480E086
S1131CD090E043DF8AE892E251D0C297A4F4F8017D
S1131CE0C58385E590E25ADF20E030E240E060E021
S1131CF088E590E245DE20E030E248E060E087E6F7
S1131D0090E23EDE13C0F801C68386E790E246DF28
S1131D1020E030E240E060E089E790E231DE20E05C
S1131D2030E248E060E087E690E22ADE6BE07BE8A0
S1131D3082E090E012DFB3CFA1E21A2EAA1BBB1BF4
S1131D40FD010DC0AA1FBB1FEE1FFF1FA217B30783
S1131D50E407F50720F0A21BB30BE40BF50B661F99
S1131D60771F881F991F1A9469F76095709580955D
S1131D7090959B01AC01BD01CF010895FC0188271A
S1131D809927E89421912032E9F3293010F02E307C
S1131D90C8F32B3239F02D3231F4689403C00BD0E0
S1131DA0820F911D219120532A30C8F31EF490957F
S1131DB081959F4F08957AE0979F902D879F802D5E
S10D1DC0910D11240895F894FFCF4B
S1131DCA00FC010607207D802500000300006C6FDB
S1131DDA6164696E67202E2E2E002E20202020207A
S1131DEA2020002E2E202020202020002E2E2E20DF
S1131DFA2020202000726563656976696E67205524
S1131E0A7755202000726563203A20202020202064
S1131E1A2020202000310A0073656E64203E763C3F
S1131E2A20202020202000202020202020202020C4
S1131E3A202020202000300A0072657374202D7639
S10B1E4A2D202020202020009F
S9030000FC
