S01100006175746F706C616E742E737265633B
S113000046C2000065C2000063C2000061C2000075
S11300105FC200005DC200005BC2000059C2000064
S113002057C2000055C2000053C2000051C2000074
S11300304FC200004DC200004BC2000049C2000084
S113004047C2000045C2000043C2000041C2000094
S11300503FC200003DC200003BC2000039C20000A4
S113006037C2000035C2000033C2000031C20000B4
S11300702FC200002DC200002BC2000029C20000C4
S113008027C2000025C2000023C2000021C20000D4
S11300901FC200001DC200001BC2000054C70000A4
S11300A084C70000B4C70000E4C7000011C2000008
S11300B00FC200000DC200000BC2000009C2000004
S11300C007C2000005C2000003C2000001C2000014
S11300D0FFC10000FDC10000FBC10000F9C1000028
S11300E0F7C10000F5C10000F3C10000F1C1000038
S11300F0EFC10000EDC10000EBC10000E9C1000048
S1130100E7C10000E5C10000E3C10000E1C1000057
S1130110DFC10000DDC10000DBC100004CC60000EF
S11301207CC60000ACC60000DCC60000D1C10000E3
S1130130CFC10000CDC10000CBC10000C9C1000087
S1130140C7C10000C5C10000C3C10000C1C1000097
S1130150BFC10000BDC10000BBC10000B9C10000A7
S1130160B7C10000B5C10000B3C10000B1C10000B7
S1130170AFC10000ADC10000ABC10000A9C10000C7
S1130180A7C10000A5C10000A3C10000A1C10000D7
S11301909FC100009DC100009BC1000099C10000E7
S11301A097C1000095C1000093C1000091C10000F7
S11301B08FC100008DC100008BC1000089C1000007
S11301C087C1000085C1000083C1000081C1000017
S11301D07FC100007DC100007BC1000079C1000027
S11301E077C1000075C1000073C1000071C1000037
S11301F06FC100006DC100006BC100000000000071
S1130200000000202020202000205050500000003A
S1130210005050F850F850502078A07028F020C0BA
S1130220C810204098186090A040A89068602040B2
S1130230000000001020404040201040201010100A
S11302402040005020F8205000002020F8202000FA
S113025000000000602040000000F80000000000E2
S1130260000000606000081020408000708898A89A
S1130270C8887020602020202070708808102040DA
S1130280F8F810201008887010305090F81010F80A
S113029080F008088870304080F0888870F8081072
S11302A020404040708888708888707088887808FA
S11302B010600060600060600000606000602040CA
S11302C0081020402010080000F800F800008040CA
S11302D02010204080708808102000207088086852
S11302E0A8A87070888888F88888F08888F088883A
S11302F0F070888080808870E09088888890E0F82A
S11303008080F08080F8F88080E080808070888031
S113031080988870888888F88888887020202020B1
S11303202070381010101090608890A0C0A09088A1
S1130330808080808080F888D8A888888888888889
S1130340C8A898888870888888888870F08888F019
S113035080808070888888A89068F08888F0A09051
S113036088788080700808F0F820202020202088D9
S113037088888888887088888888885020888888B1
S1130380A8A8D88888885020508888888850202039
S11303902020F80810204080F83820202020203821
S11303A000804020100800E02020202020E0205081
S11303B08800000000000000000000F84020100049
S11303C0000000000070087888788080B0C88888B1
S11303D0F000007080808870080868988888780029
S11303E0007088F88070304840E040404000007859
S11303F0887808308080B0C88888882000602020F1
S113040020701000301010906040404850605048F8
S1130410602020202020700000D0A8A88888000038
S1130420B0C8888888000070888888700000F088C8
S1130430F08080000068987808080000B0C88080C8
S113044080000070807008F04040E0404048300078
S11304500088888898680000888888502000008870
S113046088A8A85000008850205088000088887808
S113047008700000F8102040F810202040202010C0
S11304802020202020202040202010202040112443
S11304901FBECFEFCDBFDFE5DEBF00E00CBF10E233
S11304A0A0E0B0E2EAE2F4E200E00BBF02C0079091
S11304B00D92AE3AB107D9F723E2AEEAB0E201C039
S11304C01D92A832B207E1F70E94D6100C941312C1
S11304D097CDCF93DF931F921F92CDB7DEB76130D4
S11304E069F58091AF208F5F8093AF20813039F41C
S11304F04093B0205093B1201092B42014C02091A6
S1130500B0203091B120420F531F56954795409328
S1130510B0205093B120843031F41092AF2081E0A8
S11305208093B42039C08FB78A83F8949A81E0E02D
S1130530F2E08081846080839FBF2EC0623061F5C9
S11305408091AE208F5F8093AE20813039F4409348
S1130550B2205093B3201092B52014C02091B22041
S11305603091B320420F531F569547954093B220C4
S11305705093B320843031F41092AE2081E0809304
S1130580B5200AC08FB78983F8949981E0E0F2E03E
S11305908081886080839FBF0F900F90DF91CF91FF
S11305A00895CF93DF931F92CDB7DEB78FB78983BA
S11305B0F89499818091B420882321F01092B4207A
S11305C09FBF01C09FBF0F90DF91CF9108951F93EC
S11305D0CF93DF93CDB7DEB72B97CDBFDEBFBE0180
S11305E06F5F7F4F80E092E0DCD5AE01485F5F4FE4
S11305F061E080E092E059D68A819B819F78906186
S11306009B8392E09D83817E80618A831C82BE01EC
S11306106F5F7F4F80E092E05ED569E672E080E034
S113062092E03DD311E0188719868A85807F816026
S11306308A87AE01485F5F4F61E080E092E0EAD5CF
S1130640188788E08987AE01485F5F4F62E080E0E9
S113065092E0E0D580E092E082D32B96CDBFDEBF5E
S1130660DF91CF911F9108958091B0209091B12096
S1130670089504C0615071098109910961157105DA
S113068081059105B9F70895BF92CF92DF92EF9259
S1130690FF920F931F93CF93DF931F92CDB7DEB7D3
S11306A000E016E06894FF24F3F8F801F68264E0B1
S11306B070E080E090E0DDDFF801F58264E070E056
S11306C080E090E0D6DF0F2EFBE2BF2EF02DB98242
S11306D080EA99E00E94D50DC12CD12C760100E46A
S11306E012E42FE030E043E0BE016F5F7F4F80EA09
S11306F099E00E94040E00E616E0FF24F394F8014A
S1130700F682B982BE016F5F7F4F80EA99E00E9452
S11307101E0EF801F682E0EAF9E0818185FFFDCF43
S113072080EA8093A009E0EAF9E0818186FFFDCFA9
S1130730E0EAF9E080E481838081BE016F5F7F4F4E
S113074080EA99E00E94340E8BE28983BE016F5FD8
S11307507F4F80EA99E00E941E0E81E08093660636
S1130760E0EAF9E0818185FFFDCF86EA8093A00964
S1130770E0EAF9E0818186FFFDCFE0EAF9E080E478
S113078081838081BE016F5F7F4F80EA99E00E9480
S1130790340E8BE28983BE016F5F7F4F80EA99E05C
S11307A00E941E0E81E080936606E0EAF9E08181F2
S11307B085FFFDCF88EC8093A009E0EAF9E0818110
S11307C086FFFDCFE0EAF9E080E481838081BE0109
S11307D06F5F7F4F80EA99E00E94340E8BE2898339
S11307E0BE016F5F7F4F80EA99E00E941E0E81E098
S11307F080936606E0EAF9E0818185FFFDCF82EA15
S11308008093A009E0EAF9E0818186FFFDCFE0EA68
S1130810F9E080E481838081BE016F5F7F4F80EACD
S113082099E00E94340E8BE28983BE016F5F7F4F93
S113083080EA99E00E941E0E81E080936606E0EA59
S1130840F9E0818185FFFDCF8FE28093A009E0EA82
S1130850F9E0818186FFFDCFE0EAF9E080E481835D
S11308608081BE016F5F7F4F80EA99E00E94340E61
S11308708BE28983BE016F5F7F4F80EA99E00E941B
S11308801E0E81E080936606E0EAF9E0818185FF2F
S1130890FDCF88EF8093A009E0EAF9E0818186FF2B
S11308A0FDCFE0EAF9E080E481838081BE016F5FDF
S11308B07F4F80EA99E00E94340E8BE28983BE0167
S11308C06F5F7F4F80EA99E00E941E0E81E0809363
S11308D06606E0EAF9E0818185FFFDCF1092A00968
S11308E0E0EAF9E0818186FFFDCFE0EAF9E080E407
S11308F081838081BE016F5F7F4F80EA99E00E940F
S1130900340E8BE28983BE016F5F7F4F80EA99E0EA
S11309100E941E0E81E080936606E0EAF9E0818180
S113092085FFFDCF81E28093A009E0EAF9E08181AF
S113093086FFFDCFE0EAF9E080E481838081BE0197
S11309406F5F7F4F80EA99E00E94340E8BE28983C7
S1130950BE016F5F7F4F80EA99E00E941E0E81E026
S113096080936606E0EAF9E0818185FFFDCF81E8A6
S11309708093A009E0EAF9E0818186FFFDCFE0EAF7
S1130980F9E080E481838081BE016F5F7F4F80EA5C
S113099099E00E94340E8BE28983BE016F5F7F4F22
S11309A080EA99E00E941E0E81E080936606E0EAE8
S11309B0F9E0818185FFFDCF81E28093A009E0EA1F
S11309C0F9E0818186FFFDCFE0EAF9E080E48183EC
S11309D08081BE016F5F7F4F80EA99E00E94340EF0
S11309E08BE28983BE016F5F7F4F80EA99E00E94AA
S11309F01E0E81E080936606E0EAF9E0818185FFBE
S1130A00FDCF8FEA8093A009E0EAF9E0818186FFB7
S1130A10FDCFE0EAF9E080E481838081BE016F5F6D
S1130A207F4F80EA99E00E94340E0F90DF91CF91BE
S1130A301F910F91FF90EF90DF90CF90BF9008959A
S1130A40FF920F931F93CF93DF931F92CDB7DEB71F
S1130A50082FF62E142F0E944F0E0F70006B8BE29E
S1130A608983BE016F5F7F4F80EA99E00E941E0E6A
S1130A7081E080936606E0EAF9E0918195FFFDCF7D
S1130A800093A009E0EAF9E0818186FFFDCFE0EA66
S1130A90F9E080E481838081BE016F5F7F4F80EA4B
S1130AA099E00E94340E0F2D0F7702950F700061AC
S1130AB08BE28983BE016F5F7F4F80EA99E00E94D9
S1130AC01E0E81E080936606E0EAF9E0818185FFED
S1130AD0FDCF0093A009E0EAF9E0818186FFFDCF14
S1130AE0E0EAF9E080E481838081BE016F5F7F4F9B
S1130AF080EA99E00E94340E0F2D0F708BE28983F7
S1130B00BE016F5F7F4F80EA99E00E941E0E81E074
S1130B1080936606E0EAF9E0818185FFFDCF0093CA
S1130B20A009E0EAF9E0818186FFFDCFE0EAF9E07F
S1130B3080E481838081BE016F5F7F4F80EA99E00A
S1130B400E94340E8BE28983BE016F5F7F4F80EA7F
S1130B5099E00E941E0E81E080936506E0EAF9E0C8
S1130B60818185FFFDCF1093A009E0EAF9E081813E
S1130B7086FFFDCFE0EAF9E080E48183808181E0B3
S1130B8080936606BE016F5F7F4F80EA99E00E9402
S1130B90340E0F90DF91CF911F910F91FF90089524
S1130BA00F931F93CF93DF931F92CDB7DEB786EBDE
S1130BB090E20E944A0E68DD8BE28983BE016F5F7A
S1130BC07F4F80EA99E00E941E0E81E080936606C2
S1130BD0E0EAF9E0818185FFFDCF80E48093A009FC
S1130BE0E0EAF9E0818186FFFDCFE0EAF9E080E404
S1130BF081838081BE016F5F7F4F80EA99E00E940C
S1130C00340E00E00AC040E0612F802F19DF1F5F1F
S1130C101038C9F70F5F043011F010E0F4CF0F90D3
S1130C20DF91CF911F910F910895FF920F931F931E
S1130C30CF93DF93882354F1603240F5D42FC82F2B
S1130C40F62EF694F694F69470E088E0F89E601917
S1130C507109112481E090E08C0102C0000F111F82
S1130C606A95E2F76C2F8F2D0E945D0ED13021F032
S1130C7028F0D23031F006C0802B04C000958023C8
S1130C8001C08027482F6C2F8F2DDADEDF91CF91A2
S1130C901F910F91FF9008950C945D0E0895CF93CA
S1130CA0DF931F92CDB7DEB72FB72983F89449811C
S1130CB0282F392F211582E0380729F46093202347
S1130CC07093212307C02034324021F460931E2303
S1130CD070931F234FBF0F90DF91CF91089581151B
S1130CE022E0920769F48091B72291E0980F9093E3
S1130CF0B722811114C062E081E00C94FD0E0895C6
S1130D008034924061F48091B62291E0980F9093E0
S1130D10B622811104C062E082E00C94FD0E0895B5
S1130D20811522E0920761F48091B722815080936B
S1130D30B722811113C062E081E00C94130F08956F
S1130D408034924059F48091B62281508093B62227
S1130D50811104C062E082E00C94130F0895EF92B5
S1130D60FF921F93CF93DF931F921F92CDB7DEB7ED
S1130D707C018FB78983F8941981C701B0DFF7012B
S1130D808081816080831FBF809123238F3F09F47A
S1130D90FFCF8FB78A83F8949A81E2E2F3E28181EC
S1130DA08F5F81839FBF0F900F90DF91CF911F9131
S1130DB0FF90EF9008951F920F920FB60F92112497
S1130DC00BB60F922F933F934F935F936F937F9341
S1130DD08F939F93AF93BF93EF93FF93409124021C
S1130DE050912502E0912023F091212361E080E0DD
S1130DF092E01995FF91EF91BF91AF919F918F91DF
S1130E007F916F915F914F913F912F910F900BBE06
S1130E100F900FBE0F901F9018951F920F920FB650
S1130E200F9211240BB60F922F933F934F935F931E
S1130E306F937F938F939F93AF93BF93EF93FF939E
S1130E4040912C0250912D02E0912023F091212316
S1130E5062E080E092E01995FF91EF91BF91AF912C
S1130E609F918F917F916F915F914F913F912F91BE
S1130E700F900BBE0F900FBE0F901F9018951F92EE
S1130E800F920FB60F9211240BB60F922F933F932C
S1130E904F935F936F937F938F939F93AF93BF937E
S1130EA0EF93FF934091340250913502E091202357
S1130EB0F091212364E080E092E01995FF91EF9195
S1130EC0BF91AF919F918F917F916F915F914F915E
S1130ED03F912F910F900BBE0F900FBE0F901F905C
S1130EE018951F920F920FB60F9211240BB60F9202
S1130EF02F933F934F935F936F937F938F939F931E
S1130F00AF93BF93EF93FF9340913C0250913D0206
S1130F10E0912023F091212368E080E092E019958C
S1130F20FF91EF91BF91AF919F918F917F916F91BD
S1130F305F914F913F912F910F900BBE0F900FBE79
S1130F400F901F9018951F920F920FB60F921124B5
S1130F500BB60F922F933F934F935F936F937F93AF
S1130F608F939F93AF93BF93EF93FF93409164024A
S1130F7050916502E0911E23F0911F2361E080E40B
S1130F8092E01995FF91EF91BF91AF919F918F914D
S1130F907F916F915F914F913F912F910F900BBE75
S1130FA00F900FBE0F901F9018951F920F920FB6BF
S1130FB00F9211240BB60F922F933F934F935F938D
S1130FC06F937F938F939F93AF93BF93EF93FF930D
S1130FD040916C0250916D02E0911E23F0911F2309
S1130FE062E080E492E01995FF91EF91BF91AF9197
S1130FF09F918F917F916F915F914F913F912F912D
S11310000F900BBE0F900FBE0F901F9018951F925C
S11310100F920FB60F9211240BB60F922F933F939A
S11310204F935F936F937F938F939F93AF93BF93EC
S1131030EF93FF934091740250917502E0911E2347
S1131040F0911F2364E080E492E01995FF91EF9101
S1131050BF91AF919F918F917F916F915F914F91CC
S11310603F912F910F900BBE0F900FBE0F901F90CA
S113107018951F920F920FB60F9211240BB60F9270
S11310802F933F934F935F936F937F938F939F938C
S1131090AF93BF93EF93FF9340917C0250917D02F5
S11310A0E0911E23F0911F2368E080E492E01995FB
S11310B0FF91EF91BF91AF919F918F917F916F912C
S11310C05F914F913F912F910F900BBE0F900FBEE8
S11310D00F901F901895BF92CF92DF92EF92FF92DC
S11310E00F931F93CF93DF931F92CDB7DEB78C017D
S11310F07B01811522E0920771F461E270E082E0E5
S1131100A7D6C82ED12C60E270E082E0A1D6DC2CF8
S1131110CC24C82A10C080349240C1F565E270E046
S113112082E096D6C82ED12C64E270E082E090D69C
S1131130DC2CCC24C82A8FB78983F894B980C801E1
S1131140CEDDF801808192E09083C486D586F701D4
S113115025813681F801208F318FF7019281F801C2
S11311609283F7019481F8019483F7019381F80144
S11311709383F7019181F80191838170F701908144
S1131180892BF8018083C801CBDDBFBE0F90DF91AE
S1131190CF911F910F91FF90EF90DF90CF90BF9070
S11311A00895DF92EF92FF920F931F93CF93DF93F3
S11311B01F92CDB7DEB78C017B018FB78983F8947A
S11311C0D980C8018CDDF8018081807CF70180839F
S11311D0F801808D918DF70185839683F8018281D2
S11311E0F7018283F8018481F7018483F801838104
S11311F0F7018383F8018181F7018183C80190DDC0
S1131200DFBE0F90DF91CF911F910F91FF90EF9070
S1131210DF900895AF92BF92CF92DF92EF92FF9248
S11312200F931F93CF93DF931F92CDB7DEB76C015B
S1131230B62E7A01862F837029F4962F969596956B
S113124082E002C0962F80E090FF8F5F8601005EEF
S11312501F4F98E0899F000D111D11248FB78983BA
S1131260F894A980C6013BDDF7018081F8018083F1
S1131270F7018281F8018283F7018181F80181837A
S1131280B0FE04C0F7018381F8018683C60148DDFE
S1131290AFBE0F90DF91CF911F910F91FF90EF9010
S11312A0DF90CF90BF90AF900895AF92BF92CF924E
S11312B0DF92EF92FF920F931F93CF93DF931F92CE
S11312C0CDB7DEB76C01B62E7A01862F837029F470
S11312D0962F9695969582E002C0962F80E090FF17
S11312E08F5F8601005E1F4F98E0899F000D111DDE
S11312F011248FB78983F894A980C601F0DCF80122
S11313008081F7018083F8018281F7018283F801EB
S11313108181F7018183B0FE04C0F8018681F70161
S11313208383C601FDDCAFBE0F90DF91CF911F9187
S11313300F91FF90EF90DF90CF90BF90AF90089502
S11313404F925F926F927F928F929F92AF92BF92D1
S1131350EF92FF920F931F93CF937C014A015B019D
S113136028013901FC01848182FF16C0D901C8011A
S1131370689412F8B695A795979587951694D1F722
S1131380B901A801032E36E17695679557954795DF
S11313903A95D1F7302D15C0D901C801689413F8D6
S11313A0B695A795979587951694D1F7B901A80195
S11313B0032E37E176956795579547953A95D1F77A
S11313C0302D88159905AA05BB0508F4A2C084161A
S11313D09506A606B70608F49EC0F701848182FD2F
S11313E004C0880C991CAA1CBB1CC301B201A50132
S11313F09401EED72F3F31054105510508F48DC006
S11314008FEF90E0A0E0B0E0C9EF05C028173907DE
S11314104A075B0758F0880F991FAA1FBB1FCD3FCF
S11314200CF48160CF5FC73089F74DC0CC230CF03A
S11314304AC0D501C401880F991FAA1FBB1F880F7A
S1131440991FAA1FBB1F880F991FAA1FBB1F481AE9
S1131450590A6A0A7B0ACE3FECF48DEF9FEF8C1B8E
S11314609109C7FD939504C0440C551C661C771C58
S11314708A95D2F7D501C401B695A7959795879516
S1131480BC01CD01640D751D861D971DA501940138
S11314909FD735C083E08C0FA501940104C0220FAF
S11314A0331F441F551F8A95D2F7DA01C901B69537
S11314B0A79597958795BC01CD01640D751D861D73
S11314C0971D86D71CC083E08C0FA501940104C02E
S11314D0220F331F441F551F8A95D2F7DA01C90121
S11314E0B695A79597958795BC01CD01640D751D9B
S11314F0861D971D6DD72150310941095109832F4C
S11315008F70C295C07FC82BF701C783268381E003
S113151018C080E016C080E014C0D501C401880F53
S1131520991FAA1FBB1F880F991FAA1FBB1F880FD3
S1131530991FAA1FBB1F481A590A6A0A7B0AC9EFD6
S11315408CCFCF911F910F91FF90EF90BF90AF90F0
S11315509F908F907F906F905F904F9008950F931E
S11315601F93CF93DF93EC018B01009709F4E6C03E
S1131570803C910521F460E180E03FD4DFC0C038B5
S113158081E0D80721F462E080E037D4D7C0C115E8
S1131590E1E0DE0721F461E080E02FD4CFC0C03861
S11315A0F3E0DF0721F461E081E027D4C7C0C0394C
S11315B083E0D80721F461E082E01FD4BFC0C115E5
S11315C0E2E0DE0721F462E081E017D4B7C0C03462
S11315D0F2E0DF0721F462E082E00FD4AFC0C03252
S11315E083E0D80721F464E082E007D4A7C0C115E2
S11315F0E8E0DE0721F461E083E0FFD39FC0C1157A
S1131600F9E0DF0721F461E084E0F7D397C0C11566
S11316108AE0D80721F461E085E0EFD38FC0C115DB
S1131620EBE0DE0721F461E086E0E7D387C0C03455
S1131630F8E0DF0721F462E083E0DFD37FC0C03449
S113164089E0D80721F462E084E0D7D377C0C034BE
S1131650EAE0DE0721F462E085E0CFD36FC0C03951
S1131660F8E0DF0721F464E083E0C7D367C0C03942
S113167089E0D80721F464E084E0BFD35FC0C039B7
S1131680EAE0DE0721F464E085E0B7D357C0C0394F
S1131690FBE0DF0721F464E086E0AFD34FC0C03C39
S11316A088E0D80721F468E083E0A7D347C0C03CB2
S11316B0E9E0DE0721F468E084E09FD33FC0C03A4C
S11316C0F8E0DF0721F460E183E097D337C0C03A44
S11316D089E0D80721F460E184E08FD32FC0C03AB9
S11316E0EAE0DE0721F460E185E087D327C0C03A51
S11316F0FBE0DF0721F460E186E07FD31FC0C03B3D
S113170088E0D80721F460E283E077D317C0C03BB8
S1131710E9E0DE0721F460E284E06FD30FC0C03853
S1131720F4E0DF0721F460E483E067D307C0C03A44
S113173084E0D80719F460E485E05FD38D818F736A
S11317408D83F80195818481892B9681911198E08C
S1131750892B8D83F801408151816281738100E876
S113176014E82EE130E0CE01EBDD9C8198609C838F
S11317709C8190619C83DF91CF911F910F9108957B
S1131780CF92DF92EF92FF920F931F93CF93DF9349
S1131790EC01D901C801B695A79597958795481787
S11317A059076A077B0770F46A017B01CC0CDD1CC6
S11317B0EE1CFF1CC901B801A701960109D62150EE
S11317C0310902C020E030E0832F8F708F832E8395
S11317D0DF91CF911F910F91FF90EF90DF90CF9009
S11317E00895DF92EF92FF920F931F93CF93DF93AD
S11317F01F92CDB7DEB77C018B01009709F4B2C10B
S1131800803C910521F460E180E0F7D2ABC180E82F
S1131810E81681E0F80621F462E080E0EED2A2C18D
S1131820E114E1E0FE0621F461E080E0E6D29AC131
S1131830F0E8EF16F3E0FF0621F461E081E0DDD289
S113184091C130E9E31633E0F30621F461E082E06C
S1131850D4D288C1E11482E0F80621F462E081E088
S1131860CCD280C1E0E4EE16E2E0FE0621F462E0B0
S113187082E0C3D277C1F0E2EF16F3E0FF0621F471
S113188064E082E0BAD26EC1E11438E0F30621F4D8
S113189061E083E0B2D266C1E11489E0F80621F484
S11318A061E084E0AAD25EC1E114EAE0FE0621F41C
S11318B061E085E0A2D256C1E114FBE0FF0621F409
S11318C061E086E09AD24EC130E4E31638E0F306D4
S11318D021F462E083E091D245C180E4E81689E016
S11318E0F80621F462E084E088D23CC1E0E4EE161C
S11318F0EAE0FE0621F462E085E07FD233C1F0E93C
S1131900EF16F8E0FF0621F464E083E076D22AC102
S113191030E9E31639E0F30621F464E084E06DD2A3
S113192021C180E9E8168AE0F80621F464E085E044
S113193064D218C1E0E9EE16EBE0FE0621F464E09F
S113194086E05BD20FC1F0ECEF16F8E0FF0621F45D
S113195068E083E052D206C130ECE31639E0F306C6
S113196021F468E084E049D2FDC080EAE81688E00A
S1131970F80661F460E183E040D2E0EAF8E08481B3
S11319808F7E8483F801248122504CC0F0EAEF1644
S1131990F9E0FF0621F460E184E02FD2E3C030EAED
S11319A0E3163AE0F30621F460E185E026D2DAC0DA
S11319B080EAE8168BE0F80621F460E186E01DD2A7
S11319C0D1C0E0EBEE16E8E0FE0621F460E283E02D
S11319D014D2C8C0F0EBEF16F9E0FF0621F460E280
S11319E084E00BD2BFC030E8E31634E0F30621F400
S11319F060E483E002D2B6C080EAE81684E0F80628
S1131A0021F460E485E0F9D1ADC0F70184818F7ED3
S1131A108483FB0124812250C701F0EAEF16F8E029
S1131A20FF0649F480914E0684FDA5C00F2EF1E116
S1131A30DF2EF02DA4C0803B38E0930791F0803A6C
S1131A40E9E09E0749F430916E0634FD9BC00F2EE9
S1131A50F9E1DF2EF02D16C0803BF9E09F07F1F08D
S1131A6004C00F2EF5E1DF2EF02D803A3AE0930703
S1131A7049F480918E0684FD8AC00F2EF1E2DF2E98
S1131A80F02D15C0803A9B4091F48091AE0684FD00
S1131A900AC00F2EF9E2DF2EF02D09C00F2EFDE152
S1131AA0DF2EF02D04C00F2EFDE2DF2EF02DED2DE4
S1131AB0E695E695E69530E2E39FF0011124FA5F9E
S1131AC03D2D377081E090E0032E02C0880F991FEE
S1131AD00A94E2F78183223010F040E001C040E430
S1131AE0DF015096A30FB11D9FB79983F8943981F4
S1131AF02C9127702C939C91942B9C933FBF8583AE
S1131B00F7018581806C8583F80184818D7F813024
S1131B1029F4F70185818260858304C0F7018581FA
S1131B208D7F8583F8018581882329F0F7018581DC
S1131B308460858304C0F70185818B7F8583F801E8
S1131B40408151816281738100E814E82EE130E024
S1131B50C70116DEF70184818860848384818061F3
S1131B6084831AC0F70184818F7E8483F8012481E1
S1131B702250C70160CF0F2EF5E1DF2EF02D80EA51
S1131B8098E06ACF0F2EFDE1DF2EF02D7BCF0F2ED4
S1131B90F5E2DF2EF02D8BCF0F90DF91CF911F91C7
S1131BA00F91FF90EF90DF900895803A28E092071C
S1131BB021F460E183E021C10895803B28E092078D
S1131BC021F460E283E019C10895803A29E0920784
S1131BD021F460E184E011C10895803B29E092077B
S1131BE021F460E284E009C10895803A2AE0920772
S1131BF021F460E185E001C10895803A9B4019F425
S1131C0060E186E0FAC008950F931F93CF93DF93AA
S1131C1000D000D0CDB7DEB709831A832B833C8371
S1131C204D831E82BE016F5F7F4FDBDD2696CDBFE5
S1131C30DEBFDF91CF911F910F910895FB01808149
S1131C40E82FE695E695E69540E2E49FF00111243D
S1131C50FA5F877021E030E0A90102C0440F551FEC
S1131C608A95E2F746830895FB018081E82FE69583
S1131C70E695E69540E2E49FF0011124FA5F87704F
S1131C8021E030E0A90102C0440F551F8A95E2F714
S1131C90458308958093B8229093B92208952091A2
S1131CA0B8223091B92290E8899F200D311D11246A
S1131CB0F901E60FF11D408308952091B822309177
S1131CC0B92290E8899F200D311D1124F901E60FF6
S1131CD0F11D80810895FF920F931F93CF93DF939B
S1131CE0E42FF0E0E80FF11DE138F1051CF0C0E845
S1131CF04C2F481B442309F450C0D62FD695D695B3
S1131D00D69570E098E0D99F601971091124E1E03B
S1131D10F0E0DF0102C0AA0FBB1F6A95E2F7FA2EBA
S1131D20213021F0A8F0223039F137C0C42F1FEF41
S1131D30180F012F0C0F602F8D2F0E944C064F2D72
S1131D40482B602F8D2F0E942005C15091F725C08C
S1131D50C42F1FEF180FFA2EF094012F0C0F602FD1
S1131D608D2F0E944C064F2D4823602F8D2F0E94EB
S1131D702005C15091F711C0C42F1FEF180F012F78
S1131D800C0F602F8D2F0E944C064F2D4827602F7B
S1131D908D2F0E942005C15091F7DF91CF911F91A3
S1131DA00F91FF900895FF920F931F93CF93DF93AA
S1131DB0222369F0F42E182FC22FDFEFD60F6D2FD8
S1131DC06C0F202F4F2D812F86DFC150C1F7DF917B
S1131DD0CF911F910F91FF9008958FEF8093700022
S1131DE080937100809372008093730080937400D9
S1131DF080937500809376000895CF93DF931F92AC
S1131E00CDB7DEB79FB79983F8949981E82FF0E0B6
S1131E10E059FF4F60958081682360839FBF0F90D6
S1131E20DF91CF910895CF93DF931F92CDB7DEB7A3
S1131E309FB79983F8949981E82FF0E0E059FF4F18
S1131E408081682B60839FBF0F90DF91CF910895AD
S1131E504091CA01E62FF72F8093CA0184914093E1
S1131E60CA010895AF92BF92CF92DF92EF92FF9290
S1131E700F931F93CF93DF93C82FE62EB42E6901DF
S1131E8000E0F901248143816B2D8E2D8CDFF60156
S1131E90808181113AC08381282F26952695269525
S1131EA0877009F02F5FF601A4808C2F90E03581B4
S1131EB0831B91092A9D90011124829FA001839F75
S1131EC0500D929F500D112401811281040F151F92
S1131ED0F601F380FF20A9F0D0E0C0E08E2D8C0F36
S1131EE09C2F977021F4F801D4910F5F1F4FDD23CD
S1131EF024F441E06B2D0E941506DD0FCF5FFC1228
S1131F00EDCFB394AA94A110E3CFDF91CF911F91A9
S1131F100F91FF90EF90DF90CF90BF90AF90089516
S1131F20DF92EF92FF920F931F93CF93DF93D62EFE
S1131F30042F7901EC01162F89918A3031F4F701CD
S1131F4084818F5F080F1D2D09C08D3039F09701F2
S1131F50402F612F87DFF7018381180F888181115A
S1131F60EBCFDF91CF911F910F91FF90EF90DF9016
S1131F700895CF93DF93FC0120E030E0C62FD0E03A
S1131F80DE01022E02C0B595A7950A94E2F7A0FDE2
S1131F90508B2F5F3F4F31962830310589F740FF32
S1131FA00AC041FF03C0FC01658302C0FC016683D3
S1131FB0FC01618302C0FC016283DF91CF9108952B
S1131FC043E050E061E080EE97E0D3DF43E050E08F
S1131FD062E080EE97E0CDDF43E050E060E180E630
S1131FE096E0C7DF41E050E460E280E696E0C1DFBE
S1131FF040E05BE160E280E896E0BBDF40E05BE16B
S113200062E080EA96E0B5DF40E05BE164E080EA0C
S113201096E0AFDF43E050E062E080E696E0A9DFBF
S113202043E050E068E080E696E0A3DF43E050E060
S113203068E080EA96E09DDF43E050E061E080E6FE
S113204096E097DF43E050E068E080E096E091DFBF
S113205041E050E060E180E896E08BDF43E050E04F
S113206062E080E696E085DF43E050E068E080E6E9
S113207096E07FDF40E050E064E080E696E079DFC0
S113208043E050E060E180EA96E073DF40E050E036
S113209061E080E096E06DDF40E050E064E080E0E5
S11320A096E067DF40E050E062E080E296E061DFC6
S11320B043E050E068E080E496E05BDF40E050E01D
S11320C064E080E496E055DF43E050E068E080E6B9
S11320D096E04FDF40E050E064E080E696E049DFC0
S11320E043E050E068E080E896E043DF40E050E001
S11320F064E080E896E03DCF089504C06150710922
S1132100810991096115710581059105B9F7089552
S11321101092A7088CE08093A6081092A30883E08D
S11321208093A50888E18093A4080895E1EAF8E083
S1132130908195FFFDCF8093A0080895CF93DF93FE
S1132140EC018881882351F02196F0DF6EE471E080
S113215080E090E0D2DF89918111F7CFDF91CF91B8
S11321600895E1EAF8E080818823ECF78091A008E3
S113217008950F931F93CF93DF930AEB12E2C0E00D
S1132180D0E0EFDF8A3051F02196F80181938F017E
S11321906EE471E080E090E0B0DFF3CFC654DD4D33
S11321A01882DF91CF911F910F910895CF93DF9300
S11321B01F92CDB7DEB704DF10DE0E94D0050E9467
S11321C0E70287E08093A200789480E180938506FB
S11321D081E08093410688E0809345068093410620
S11321E084E0809346068093420692DF67E070E2C3
S11321F080EA98E0B4D920E030E240E060E08EE08C
S113220090E28EDE20E030E248E060E08AE190E295
S113221087DE6BE07BE882E090E06FDF20E030E275
S113222048E060E083E290E27BDE6BE07BE882E002
S113223090E063DF20E030E248E060E08CE290E28E
S11322406FDE6BE27CE28AE090E057DF85E390E2A8
S113225075DF712C812C912C54010F2EF0E4EF2E9C
S1132260F6E0FF2EF02D6624639400E012E00F2EBA
S1132270F0EECF2EF7E0DF2EF02D7BDF20E030E212
S113228040E060E087E390E24BDE6AEB72E285E3D4
S113229090E2C0D0892B89F4F701658220E030E216
S11322A048E060E08CE490E23BDE20E030E248E08D
S11322B060E08EE590E234DE47C06AEB72E28AE6C3
S11322C090E2A8D0892B89F4F701658220E030E2FE
S11322D048E060E08CE490E223DE20E030E248E075
S11322E060E08CE690E21CDE2FC06AEB72E28EE7BF
S11322F090E290D0892B89F4F701668220E030E2E5
S113230048E060E08CE490E20BDE20E030E248E05C
S113231060E080E890E204DE17C06AEB72E286E8CF
S113232090E278D0892B81F4F701668220E030E2D4
S113233048E060E08CE490E2F3DD20E030E248E045
S113234060E088E890E2ECDD8FB78983F8949981A6
S1132350F8018081846080839FBF0E94D10288231A
S1132360E1F30E943403092E000CAA0BBB0B880E68
S1132370991EAA1EBB1EF3E1F71510F0739422C038
S113238080EB881684E09806A104B10470F420E080
S113239030E240E160E08FE890E2C2DDF60166825F
S11323A0712C812C912C54010DC020E030E240E1CD
S11323B060E08EE990E2B4DDF6016582712C812C37
S11323C0912C54016BE07BE882E090E096DE55CFDF
S11323D0A1E21A2EAA1BBB1BFD010DC0AA1FBB1F25
S11323E0EE1FFF1FA217B307E407F50720F0A21B97
S11323F0B30BE40BF50B661F771F881F991F1A9404
S113240069F760957095809590959B01AC01BD012D
S1132410CF010895FB01DC018D9101908019011019
S10D2420D9F3990B0895F894FFCF47
S113242A00FC010607207D802500000300006C6F74
S113243A6164696E67202E2E2E002E202020202013
S113244A2020002E2E202020202020002E2E2E2078
S113245A202020200031004175746F6D6174696316
S113246A20506C616E742043617265002020202024
S113247A20202020202020202020202020003E2050
S113248A6C6F772077617465720032003E206C6F3E
S113249A77207761746572202620686F7400330090
S11324AA3E20686F740030003E20676F6F64006CD2
S11324BA6F77206C696768742020202020006C697B
S11124CA676874696E6720676F6F6420000096
S9030000FC
